:100000000C9442050C9489050C9489050C9489057F
:100010000C9489050C9489050C9489050C94890528
:100020000C9489050C9489050C9489050C94BA0FDD
:100030000C9469100C94541F0C9489050C94890538
:100040000C9489050C9489050C9489050C94C81F9F
:100050000C9489050C9489050C9489050C948905E8
:100060000C9489050C9489050C9489050C948905D8
:100070000C948905D610F810E611F810E6113D1120
:100080006011E611B511C8116D156D159C159C1503
:10009000FA1538165218521851165218521752178C
:1000A0002618521852183D18041607090B0A1D1B72
:1000B00006196405141A08151C171E1F2021232277
:1000C0002E26242D25273012182F0C13280F0D341F
:1000D0000E333136381110372B2C352A5829787BBE
:1000E00079397A504F5152726C63685680668053EA
:1000F000020103555880576D6E5462595A5B5C5D1E
:100100005E5F6F60617475663E3F403C414277447C
:1001100076466B47804365458048494A4B4C3D4D88
:100120003B4E3A7D7E7C7F734552524F523A206D52
:1001300065646961206B6579300A004552524F52FF
:100140003A206D65646961206B6579310A006572DA
:10015000726F723A2025640A0025303458200065F9
:1001600072726F723A2025640A00253034582000DC
:100170005D0A0025640020002564007C00253032E3
:100180005800200025303258006164625F6D6F7541
:100190007365207261773A205B000A0025303136A2
:1001A00062006164625F686F73745F6D6F75736521
:1001B0005F726563763A2000646562756720656EDC
:1001C00061626C65642E0A005363616E3A2061645B
:1001D00064723A25642C20726567333A25303458AE
:1001E0000A00416674657220696E69743A0A0046B5
:1001F0006F756E643A206D65646961206B65797313
:100200000A006861646C65725F69643A2025303267
:10021000582C2069735F69736F5F6C61796F7574B7
:100220003A2025730A005363616E3A206164647258
:100230003A25642C20726567333A253034580A0019
:100240004265666F726520696E69743A0A000A4BEE
:100250006579626F6172642073746172742E0A0032
:100260004B6579626F61726420696E69742E0A0051
:100270002E0341004400420020006B00650079001D
:1002800062006F00610072006400200063006F0074
:100290006E00760065007200740065007200000058
:1002A0000E0374002E006D002E006B002E00000067
:1002B0000403090409027400040100A032090400C7
:1002C0000001030101000921110100012240000782
:1002D00005810308000A0904010001030102000965
:1002E0002111010001224D000705820308000A09BF
:1002F000040200010300000009211101000122365F
:10030000000705830308000A090403000203000034
:1003100000092111010001222200070584032000A9
:10032000010705040320000112011001000000086C
:10033000EDFEDB0A0101010200010631FF0974A193
:10034000010975150026FF009520750881020976C0
:10035000150026FF00952075089102C0050109804F
:10036000A101850216810026B7001A81002AB70074
:10037000751095018100C0050C0901A101850316C6
:100380000100269C021A01002A9C02751095018129
:1003900000C005010902A1010901A1000509190117
:1003A0002905150025019505750181029501750343
:1003B00081010501093009311581257F95027508F4
:1003C000810609381581257F950175088106050C80
:1003D0000A38021581257F950175088106C0C00580
:1003E000010906A101050719E029E7150025019576
:1003F0000875018102950175088101050819012917
:10040000059505750191029501750391010507197F
:100410000029FF150026FF00950675088100C063BE
:100420006F6E73756D65723A20253034580A00730B
:10043000797374656D3A20253034580A000A002516
:1004400030325820006B6579626F6172643A200027
:100450004C45443A20253032580A00253032583A6B
:10046000202530386225730A00722F632030313224
:1004700033343536370A00290A002575002F002548
:1004800075005D28002564002000256400200025FB
:10049000640020002564007C0025303258006D6F18
:1004A0007573656B6579205B62746E7C782079204A
:1004B0007620685D287265702F61636C293A205B35
:1004C000006D6B5F776865656C5F74696D655F74FF
:1004D0006F5F6D6178203D2025640A006D6B5F774A
:1004E0006865656C5F6D61785F7370656564203DFC
:1004F0002025640A006D6B5F74696D655F746F5FC2
:100500006D6178203D2025640A006D6B5F6D617818
:100510005F7370656564203D2025640A006D6B5F24
:10052000696E74657276616C203D2025640A006DE9
:100530006B5F64656C6179203D2025640A006D6BFA
:100540005F776865656C5F74696D655F746F5F6D1B
:100550006178203D2025640A006D6B5F77686565D2
:100560006C5F6D61785F7370656564203D20256404
:100570000A006D6B5F74696D655F746F5F6D6178A4
:10058000203D2025640A006D6B5F6D61785F73709C
:10059000656564203D2025640A006D6B5F696E749B
:1005A000657276616C203D2025640A006D6B5F6486
:1005B000656C6179203D2025640A000A00257500DC
:1005C000363A20776865656C5F74696D655F746F36
:1005D0005F6D61783A20000A00257500353A207772
:1005E0006865656C5F6D61785F73706565643A20FE
:1005F000000A00257500343A2074696D655F746FD8
:100600005F6D61783A20000A00257500333A206D4D
:1006100061785F73706565643A20000A0025750093
:10062000323A20696E74657276616C286D73293A6E
:1006300020000A00257500313A2064656C61792834
:100640002A31306D73293A20000A092D2056616C39
:10065000756573202D0A004D3E004D25643E200037
:100660003F007365742064656661756C740A0043AD
:100670003E200077686572652064656C74613A207D
:10068000637572736F723D25642C20776865656CA5
:100690003D25640A53656520687474703A2F2F6590
:1006A0006E2E77696B6970656469612E6F72672F52
:1006B00077696B692F4D6F7573655F6B6579730A29
:1006C000000A092D204D6F7573656B6579202D0A21
:1006D0004553432F713A09717569740A313A0964B7
:1006E000656C6179282A31306D73290A323A0969BB
:1006F0006E74657276616C286D73290A333A096DE0
:1007000061785F73706565640A343A0974696D6570
:100710005F746F5F6D61780A353A09776865656C5B
:100720005F6D61785F73706565640A363A09776852
:1007300065656C5F74696D655F746F5F6D61780A84
:100740000A703A097072696E742076616C7565730F
:100750000A643A097365742064656661756C747324
:100760000A75703A092B310A646F776E3A092D3198
:100770000A706775703A092B31300A7067646F77B9
:100780006E3A092D31300A0A7370656564203D2088
:1007900064656C7461202A206D61785F7370656593
:1007A00064202A2028726570656174202F20746986
:1007B0006D655F746F5F6D6178290A003F004D3E83
:1007C0002000433E20004C25640A000A092D2043E6
:1007D0006F6E736F6C65202D0A4553432F713A0974
:1007E000717569740A6D3A096D6F7573656B65791A
:1007F0000A000A092D204D61676963202D0A643AB9
:100800000964656275670A783A09646562756720EC
:100810006D61747269780A6B3A0964656275672064
:100820006B6579626F6172640A6D3A09646562751D
:1008300067206D6F7573650A763A0976657273691C
:100840006F6E0A733A097374617475730A633A09B7
:10085000636F6E736F6C65206D6F64650A302D3445
:100860003A096C61796572302D34284631302D4655
:1008700034290A506175733A09626F6F746C6F6145
:100880006465720A003F0074696D65725F7265612C
:1008900064333228293A202530346C580A006B65BD
:1008A00079626F6172645F69646C653A2025580AE9
:1008B000006B6579626F6172645F70726F746F63F1
:1008C0006F6C3A2025580A00686F73745F6B657906
:1008D000626F6172645F6C65647328293A202558E1
:1008E0000A000A092D20537461747573202D0A00C3
:1008F0004743433A20342E392E32204156522D4C54
:100900004942433A20312E382E3073766E204156BC
:10091000525F415243483A2061767233350A004FA4
:100920005054494F4E533A204C554641204D4F5557
:1009300053454B45592045585452414B4559204346
:100940004F4E534F4C4520434F4D4D414E44204B4D
:1009500045594D41505F53454354494F4E20343023
:1009600039360A004255494C443A203063663066B5
:100970006331202831313A35313A3233204E6F76A7
:100980002031342032303138290A005649443A2087
:1009900030784645454428742E6D2E6B2E29205004
:1009A00049443A2030783041444228414442206B47
:1009B0006579626F61726420636F6E7665727465CB
:1009C0007229205645523A203078303130310A00B1
:1009D000444553433A20636F6E76657274204144F8
:1009E00042206B6579626F61726420746F20555389
:1009F000420A000A092D2056657273696F6E202D18
:100A00000A000A6D6F7573653A206F66660A000A00
:100A10006D6F7573653A206F6E0A000A6B657962B7
:100A20006F6172643A206F66660A000A6B657962CC
:100A30006F6172643A206F6E0A000A6D61747269A8
:100A4000783A206F66660A000A6D61747269783AB6
:100A5000206F6E0A000A64656275673A206F6E0A3D
:100A6000000A64656275673A206F66660A000A0AC2
:100A7000626F6F746C6F616465722E2E2E2000435E
:100A80003E20000011241FBECFEFD4E0DEBFCDBF5B
:100A900004B603FE27C080916F0390917003A0916C
:100AA0007103B09172038730904BA740B04BD1F4E3
:100AB00010926F03109270031092710310927203E0
:100AC00014BE84B7877F84BF0FB6F894A895809131
:100AD0006000886180936000109260000FBEE0E0CB
:100AE000F8E3099511E0A0E0B1E0E8E9F0E502C023
:100AF00005900D92A034B107D9F723E0A0E4B1E04E
:100B000001C01D92AF36B207E1F70E94980C0C9419
:100B10004A280C940000FF93EF93E0914001F0917C
:100B20004101309709F00995EF91FF910895FC017B
:100B30008591803011F0EFDFFBCF0895FF27E0E2D1
:100B400030E247FF0CC0419597FF09C0EDE2609588
:100B5000709580959095611D711D811D911D27FFD8
:100B600002C0219530E350E2AA27660F771F881F45
:100B7000991FAA1FA41710F0A41B63955A95A9F7F3
:100B8000AA3008F0A95FA05DAF93F39561157105D8
:100B90008105910541F7ED3211F4EF93F395F217CA
:100BA00018F43F93F395FBCF8F91B5DFFA95E1F7FA
:100BB0000895E991F9918591803021F0853219F0FD
:100BC000AADFF9CF089520E0E89455915532C1F39A
:100BD000503311F4689455915A3348F4505390F3BC
:100BE000220F022E220F220F200D250FF4CF0EF41C
:100BF000219589919991533619F3533729F153353A
:100C000059F1BC0188279927E8945C3621F4899131
:100C1000999168945591543639F446EF7EF077FFF8
:100C20000DC08FEF9FEF0AC055374AE039F05835B5
:100C300040E121F0523642E009F00895FF93EF932E
:100C40007DDFEF91FF91B7CFFF93EF93FC0181918F
:100C50008030B9F360DFFBCFFF93EF9368DFF1CF14
:100C6000DF93CF93CDB7DEB72596A3DFCF91DF918A
:100C70000895282F2770E82FE695E695E695EF7002
:100C8000F0E0E45BFE4F87FF0AC081E090E001C026
:100C9000880F2A95EAF780959081892308C081E022
:100CA00090E001C0880F2A95EAF79081892B808314
:100CB00008950F931F93CF93DF93569A5E9A0E94E5
:100CC0008D092FEF87EA91E6215080409040E1F7AF
:100CD00000C0000080E492E09F938F930E94300652
:100CE0000F900F90C1E0D0E006E212E063E08C2F9D
:100CF0000E949109009771F09F938F93DF93CF9398
:100D00001F930F930E9430060F900F900F900F903B
:100D10000F900F909FEF29EF80E09150204080408E
:100D2000E1F700C000002196C031D105F9F663E07B
:100D300082E00E94910999278131910539F194F45B
:100D40008730910519F13CF49C012450310922307F
:100D5000310500F51BC089309105C1F08D3091053A
:100D6000C9F414C08D31910589F03CF484319105AA
:100D700069F08931910571F409C0843C910531F025
:100D8000873C910519F0813C910521F421E02093E5
:100D90005C0102C010925C0120915C01211103C032
:100DA0002EE131E002C02AE131E03F932F939F937F
:100DB0008F9382E092E09F938F930E94300663E0CE
:100DC00087E00E94910991E00F900F900F900F9093
:100DD0000F900F90823009F090E090935D0199237D
:100DE00041F08FEE91E09F938F930E9430060F9019
:100DF0000F9023E042E063E082E00E94230A82EE4B
:100E000091E09F938F930E9430060F900F90C1E066
:100E1000D0E008EC11E063E08C2F0E94910900976C
:100E200071F09F938F93DF93CF931F930F930E9443
:100E300030060F900F900F900F900F900F908FEF44
:100E400099EF20E0815090402040E1F700C0000081
:100E50002196C031D105F9F6ECE4F1E080E18E0F86
:100E600011928E13FDCF0E9403120E9434098091CB
:100E7000510381608093510388EB91E00E949705B4
:100E8000569A5E98DF91CF911F910F910895CF935D
:100E9000DF9380914501909146010E949E1F0C971F
:100EA00008F4CCC00E94861F9093460180934501B0
:100EB0000E941F0AEC01009711F481E0BDC097FD6C
:100EC00005C080914701816080934701D7FF05C02D
:100ED000809147018E7F80934701ED2FFF27EF73AD
:100EE000FF27CE018F739927C6FF02C08054910956
:100EF000D6FF02C0E054F109A09144010A2E000C73
:100F0000BB0BBD010E940B2881382FEF920714F410
:100F100081E89FEF22273327281B390B21388FEFD9
:100F2000380714F421E83FEF219520934801CF01C1
:100F3000BD010E940B2881382FEF920714F481E83D
:100F40009FEF91958195910981382FEF920714F4C5
:100F500081E89FEF8195809349018091510383FF40
:100F600060C082EA91E00E949705DF93CF938CE9FD
:100F700091E09F938F930E9430068AE991E00E944E
:100F8000970589E891E00E94970580914401282FF8
:100F9000082E000C330B3F938F9384E891E09F93CE
:100FA0008F930E94300682E891E00E94970580911D
:100FB00047011F928F938DE791E09F938F930E943B
:100FC00030068BE791E00E94970580914801282F19
:100FD000082E000C330B3F938F9388E791E09F938B
:100FE0008F930E94300686E791E00E9497058091DA
:100FF0004901282F082E000C330B3F938F9383E772
:1010000091E09F938F930E94300680E791E00E94C9
:1010100097058DB79EB744960FB6F8949EBF0FBE46
:101020008DBF87E491E00E9458128091440191E0C5
:1010300088300CF090E0890F80934401DF91CF91CC
:101040000895CF93DF93C0910001D09101018FEFFC
:101050009FEF9093010180930001CF3F8FEFD8075E
:1010600009F0BEC080914201909143010E949E1FF1
:101070000C9708F4B7C00E94861F90934301809399
:10108000420182E00E941C0AEC018091510380FF22
:101090000EC0209761F0DF93CF938AE691E09F9393
:1010A0008F930E9430060F900F900F900F908091B9
:1010B0006001882381F0282F082E000C330B3F930A
:1010C0008F938FE591E09F938F930E9430060F904E
:1010D0000F900F900F9080916001823E19F40E9452
:1010E000590680C0209709F07FC080915D01882358
:1010F00009F478C087E00E941C0AEC01892B09F4EE
:1011000071C08091510380FF0CC0DF93CF9389E5BC
:1011100091E09F938F930E9430060F900F900F9055
:101120000F9080916001882381F0282F082E000CF9
:10113000330B3F938F938EE491E09F938F930E94A4
:1011400030060F900F900F900F90CE018F77992758
:101150008230910591F038F4009761F0019799F48D
:10116000C078CA641AC08330910551F08F37910559
:10117000A1F009C0C078C26410C0C078C9640DC0B5
:10118000C078C8640AC08BE391E09F938F930E945C
:1011900030060F900F9081E15EC08D2F99278F77D9
:1011A00099278130910561F040F08230910559F026
:1011B000039761F4D078D86417C0D078D26414C093
:1011C000D078DA6411C0D078D9640EC088E291E09A
:1011D0009F938F930E9430060F900F9080E13BC049
:1011E000209781F480E037C0CF378FE7D80711F41C
:1011F0008FE705C0CF3F8FEFD80741F48FEF0E94F4
:10120000390628C0CF378FE7D80791F32D2F332722
:101210008C2F2F3F310511F0822F01C0CFEF90911D
:101220005C01992359F0982F9F77923319F48078B5
:101230008A6004C09A3011F4807882630E94390673
:10124000CF3F41F0D0E0DC2FCC27CF6FD09301010E
:10125000C093000181E0DF91CF910895E82FF0E085
:10126000E45BFE4F80810895682F609582E00C94C6
:101270005C0A509A83E091E00197F1F700C000000A
:1012800050989AEB9A95F1F700C00895509A8AEB1E
:101290008A95F1F700C0509883E091E00197F1F74B
:1012A00000C000000895EF92FF920F931F93CF9319
:1012B000DF93C0E0D0E090E8E92EF12C082F10E099
:1012C000C7010C2E02C0959587950A94E2F78023FA
:1012D0009123892B19F00E94460902C00E94390906
:1012E0002196C830D10561F7DF91CF911F910F9101
:1012F000FF90EF900895489B06C023E02A95F1F7F0
:1013000000000197C1F70895489906C023E02A9587
:10131000F1F700000197C1F7089558985098089583
:101320000895EF92FF920F931F93CF93DF9300D016
:10133000CDB7DEB71092600110925F0110925E018E
:10134000F894509AE3EFFBE03197F1F700C000000A
:101350006A8389830E9446096A816C6089818295CB
:10136000807F862B0E9453090E94390984EF91E007
:101370000E948409892B11F482EE41C084EF91E030
:101380000E947B09892B19F41092600149C021E168
:10139000F22E32E8E32E82E890E00E9484098C016C
:1013A000882329F099270E947B09811104C0F194B8
:1013B000F092600135C020915E0130915F01220FF3
:1013C000331F30935F0120935E019E2D901B081BFD
:1013D000901730F4216030935F0120935E0105C0C7
:1013E000F1E1FF1202C08CEE0AC0FA94F110D3CFE3
:1013F0008FE591E00E948409892B21F48BEE809384
:1014000060010EC08BE590E00E947B09892BB1F74B
:1014100078941092600180915E0190915F0103C009
:10142000789480E090E00F900F90DF91CF911F9122
:101430000F91FF90EF90089560E00C94910960E0A7
:1014400083E00C9491091F93CF93DF9300D01F92F8
:10145000CDB7DEB7182FF894509A83EF9BE0019731
:10146000F1F700C000002B834A8369830E9446097C
:101470006981862F88601295107F812B0E94530905
:101480000E9439098FE193E00197F1F700C0000055
:101490000E9446094A81842F0E9453092B81822F82
:1014A0000E9453090E94390978940F900F900F9071
:1014B000DF91CF911F910895262F277040E062E0C1
:1014C0000C94230A80916D020895CF93DF9300D08E
:1014D0001F92CDB7DEB79C0180916603843019F569
:1014E00093E099833B832A839093E9008FEF909157
:1014F000E800815095FD06C095ED9A95F1F7000042
:101500008111F5CF8091E80085FF0DC040E050E0EB
:1015100063E070E0CE0101960E94C80D8091E80062
:101520008E778093E8000F900F900F90DF91CF910E
:101530000895CF93DF9300D01F92CDB7DEB72091EF
:101540006603243021F522E029839B838A8383E08C
:101550008093E9008FEF9091E800815095FD06C0DF
:1015600095ED9A95F1F700008111F5CF8091E80093
:1015700085FF0DC040E050E063E070E0CE010196D1
:101580000E94C80D8091E8008E778093E8000F904C
:101590000F900F90DF91CF91089520916603243032
:1015A000F1F422E02093E9002FEF3091E800215080
:1015B00035FD06C035ED3A95F1F700002111F5CF64
:1015C0002091E80025FF0BC040E050E065E070E0AE
:1015D0000E94C80D8091E8008E778093E8000895FE
:1015E000CF93DF9320916603243049F521E02093C7
:1015F000E90021E8215059F03091E80035FD07C09D
:10160000EFE3F1E03197F1F700C00000F3CF209154
:10161000E80025FF14C0EC0140E050E068E070E015
:101620000E94C80D8091E8008E778093E80088E0E2
:10163000FE01A5E6B2E001900D928A95E1F7DF91F7
:10164000CF910895CF93C0916301C1110BC00E9447
:10165000921F643C79408105910520F081E08093E0
:101660006301C1E08C2FCF910895CF93C82F0E94C2
:10167000220B882309F448C00FB607FE45C08091AD
:101680006603843009F040C09091E9009F7020917A
:10169000EC00822F817020FD80E8982B84E08093FD
:1016A000E9008091EB0080FF2CC08091EE0087FF65
:1016B00028C02091050180910401821709F449C0D6
:1016C0008091E80085FF1DC0E0910201F0910301C7
:1016D000E20FF11D80812F5F3091060123232093BB
:1016E00005018093F1008091E80085FDE2CF8091B3
:1016F000E80080FFDECF2091E8002E772093E800FD
:10170000D8CF9F709093E9002091040130E0B90197
:101710006F5F7F4F90910601492F50E0462357237A
:101720006091050170E04617570789F0809102012A
:1017300090910301FC01E20FF31FC083809104012B
:101740008F5F909106018923809304010BC08FEF76
:101750000AC08091E80085FFD4CFC093F1009F704C
:101760009093E90080E0CF9108950895089542E0B4
:1017700061EC81E00E94D10E42E061EC82E00E94C7
:10178000D10E42E061EC83E00E94D10E42E261ECB6
:1017900084E00C94D10E80916803833009F453C027
:1017A00030F4813071F0823009F48CC008958A30B1
:1017B00009F478C08B3009F45EC0893009F09AC012
:1017C00020C080916703813A09F094C08091E800BD
:1017D000877F8093E80080916B0390916C03892B45
:1017E00021F468E085E692E003C060E080E090E0EC
:1017F00070E00E94130E8091E8008B778093E800E0
:10180000089580916703813209F074C080916B0361
:1018100090916C03892B09F06DC08091E800877F5F
:101820008093E8008091E80082FD05C08091660306
:101830008111F8CF5FC08091F10080936D0280919B
:10184000E8008B7753C080916703813A09F052C05A
:1018500080916B0390916C03892B09F04BC08091B0
:10186000E800877F8093E8008091E80080FFFCCF4C
:101870008091110136C0809167038132D9F5809142
:101880006B0390916C03892BA9F58091E800877F09
:101890008093E8000E94060F8091690380931101F4
:1018A0000C94741880916703813221F58091E800CF
:1018B000877F8093E8000E94060F80916A038093DF
:1018C0006E02089580916703813AA1F48091E80047
:1018D000877F8093E8008091E80080FFFCCF8091B3
:1018E0006E028093F1008091E8008E778093E8008B
:1018F0000C94060F08950895089580916D028093C9
:10190000640110926D0280E00E9434090E946E13FF
:101910000C9474180C947D0C0E94131F8091640326
:10192000882329F00E943C1F81110C94B20D089568
:10193000CF9384B7877F84BF0FB6F894A895809122
:101940006000886180936000109260000FBE90E09C
:1019500080E80FB6F89480936100909361000FBE09
:1019600085E39BE00E94E81E87E091E00E94FE1163
:1019700080E692E00E9497050E947B0C0E94BF12B5
:101980000E94570F0E94AA0F8091E200846080930A
:10199000E20078940E94C11280916603843019F0AD
:1019A0000E942108F9CF0E947C0C8EE492E00E94F4
:1019B0009705C4E080916603853019F40E948C0C71
:1019C000F9CF0E94C7128091E4009091E500209128
:1019D0006101309162012817390761F38091E400B9
:1019E0009091E50090936201809361010E94220B27
:1019F000882301F3809166038430E1F68091E90049
:101A00008F702091EC00922F917020FD90E8892B2F
:101A1000C093E9009091EB0090FF3FC09091EE00E1
:101A200097FF3BC09091050120910401291709F10E
:101A30002091E80025FF1DC0E0910201F091030113
:101A4000E90FF11D30819F5F209106019223909351
:101A500005013093F1009091E80095FDE3CF90915E
:101A6000E80090FFDFCF9091E8009E779093E80028
:101A7000D9CF9091F200992381F09091E80090FFE6
:101A80000CC09091E80095FF03C01092F100F9CFCF
:101A90009091E8009E779093E8008F708093E90022
:101AA00089CF0E94501F8091640180936D02089538
:101AB0000C94510D292F332723303105C9F064F4DC
:101AC0002130310581F02230310509F043C084E72F
:101AD00090E024EB32E042C021323105F1F02232B5
:101AE000310541F137C082E190E028E233E036C0B1
:101AF00099278130910541F08230910541F0892B81
:101B000049F5E0EBF2E005C0E0EAF2E002C0E0E710
:101B1000F2E0849190E09F0121C06430D8F4E62F78
:101B2000F0E0EE0FFF1FE35DFE4F2081318189E081
:101B300090E014C0643070F470E0FB01EE0FFF1F02
:101B4000EB5DFE4F20813181FB01EF5DFE4F808117
:101B500090E004C080E090E020E030E0FA013183C2
:101B60002083089584E089BD86E089BD09B400FE24
:101B7000FDCF8091D8008F7D8093D8008091E000C8
:101B800082608093E0008091E00081FDFCCF0895A9
:101B9000CF92DF92EF92FF920F931F93CF93DF9339
:101BA000EC018B016A010E94250F811133C0C11421
:101BB000D10439F0F60180819181081B190BC80FFF
:101BC000D91FE12CF12C0115110519F18091E800C4
:101BD00085FD16C08091E8008E778093E800C114DF
:101BE000D10449F0F60180819181E80EF91EF1825D
:101BF000E08285E00FC00E94250F882321F30AC0F0
:101C000089918093F10001501109FFEFEF1AFF0A4B
:101C1000DACF80E0DF91CF911F910F91FF90EF908D
:101C2000DF90CF90089520916D0330916E032617B9
:101C3000370748F06115710539F42091E8002E77D7
:101C40002093E80001C0B90140E06115710591F1F0
:101C500020916603222309F440C0253009F43FC0D7
:101C60002091E80023FD3DC02091E80022FD2FC017
:101C70002091E80020FFE9CF2091F20030E0FC0144
:101C8000CF016115710559F02830310540F481917B
:101C90008093F100615071092F5F3F4FF1CF41E018
:101CA0002830310509F040E02091E8002E7720939C
:101CB000E800CBCF4111CCCF0AC0809166038823C6
:101CC00061F0853061F08091E80083FD0AC0809169
:101CD000E80082FFF2CF80E0089582E0089583E07B
:101CE000089581E0089520916D0330916E032617C9
:101CF000370748F06115710539F42091E8002E7717
:101D00002093E80001C0B901FC0120E061157105D4
:101D100079F180916603882309F43DC0853009F488
:101D20003CC08091E80083FD3AC08091E80082FDCC
:101D30002CC08091E80080FFE9CF8091F20090E014
:101D40006115710559F08830910540F42491209374
:101D5000F1003196615071090196F2CF21E00897A8
:101D600009F020E08091E8008E778093E800CECFE4
:101D70002111CFCF0AC080916603882361F085309E
:101D800061F08091E80083FD0AC08091E80082FF45
:101D9000F2CF80E0089582E0089583E0089581E025
:101DA0000895982F953058F59093E900981739F0D9
:101DB0007091EC002091ED005091F00003C0242FB1
:101DC000762F50E021FF19C03091EB003E7F309319
:101DD000EB003091ED003D7F3093ED003091EB0052
:101DE00031603093EB007093EC002093ED00509342
:101DF000F0002091EE0027FF07C09F5FD3CF8F70C8
:101E00008093E90081E0089580E008958091670360
:101E100087FF11C08091E80082FD05C080916603B4
:101E20008111F8CF11C08091E8008B770BC08091B1
:101E30006603882349F08091E80080FFF8CF809105
:101E4000E8008E778093E80008952091E4003091B7
:101E5000E50095E64091EC00842F817040FF22C0A0
:101E60008091E80080FD1CC080916603882391F07A
:101E7000853091F08091EB0085FD10C04091E40029
:101E80005091E5004217530729F39A01915011F739
:101E900084E0089582E0089583E0089581E0089544
:101EA00080E008954091E80042FFDECF08950E944F
:101EB000B40F0E94B70FE0EEF0E080818160808374
:101EC000E8EDF0E080818F77808319BCE3E6F0E0F5
:101ED0008081816080831092650308950E94B40F11
:101EE0000E94B70F8091D8008F778093D80080919F
:101EF000D80080688093D8008091D8008F7D80932F
:101F0000D80084E089BD86E089BD09B400FEFDCF1C
:101F1000109266031092620310926403109263039E
:101F200042E060E080E00E94D10E8091E1008E7F6F
:101F30008093E1008091E20081608093E2008091D3
:101F4000E20088608093E2008091E0008E7F8093C1
:101F5000E0000895E3E6F0E080818E7F808381E0F9
:101F6000809365030C946E0F1092E2000895109216
:101F7000E10008951F920F920FB60F9211242F9334
:101F80003F934F935F936F937F938F939F93AF9301
:101F9000BF93EF93FF938091E10082FF0BC080918C
:101FA000E20082FF07C08091E1008B7F8093E10017
:101FB0000E94B60B8091E10080FF19C08091E20081
:101FC00080FF15C08091E2008E7F8093E2008091B7
:101FD000E20080618093E2008091D800806280936B
:101FE000D80019BC85E0809366030E948A0C80911A
:101FF000E10084FF30C08091E20084FF2CC084E0C7
:1020000089BD86E089BD09B400FEFDCF8091D8006E
:102010008F7D8093D8008091E1008F7E8093E100D6
:102020008091E2008F7E8093E2008091E2008160E7
:102030008093E20080916203882311F084E007C05E
:102040008091E30087FD02C081E001C083E08093BE
:1020500066030E94580D8091E10083FF29C08091A2
:10206000E20083FF25C08091E100877F8093E1003B
:1020700082E080936603109262038091E1008E7F7C
:102080008093E1008091E2008E7F8093E200809156
:10209000E20080618093E20042E060E080E00E9424
:1020A000D10E8091F00088608093F0000E94B50B03
:1020B000FF91EF91BF91AF919F918F917F916F9120
:1020C0005F914F913F912F910F900FBE0F901F90F6
:1020D00018951F920F920FB60F9211242F933F93D2
:1020E0004F935F936F937F938F939F93AF93BF9320
:1020F000CF93DF93EF93FF93C091E900CF7080916E
:10210000EC00D82FD17080FDD0E81092E9008091CA
:10211000F000877F8093F00078940E94AD101092B9
:10212000E9008091F00088608093F000CD2BCF70A3
:10213000C093E900FF91EF91DF91CF91BF91AF91F3
:102140009F918F917F916F915F914F913F912F91CF
:102150000F900FBE0F901F9018951F93CF93DF9392
:10216000CDB7DEB7AA970FB6F894DEBF0FBECDBFCE
:10217000E7E6F3E088E08E0F9091F10091938E13E3
:10218000FBCF0E94CB0B8091E80083FF1FC18091A1
:10219000670390916803492F50E04A30510508F0D9
:1021A00015C1FA01E65CFF4F0C943028803881F0AD
:1021B000823809F00BC180916B038F708093E90026
:1021C0008091EB0085FB882780F91092E90006C01A
:1021D0008091630390916403911182609091E80073
:1021E000977F9093E8008093F1001092F100C8C0AF
:1021F000282F2D7F09F0EAC0882319F0823061F082
:10220000E5C080916903813009F0E0C0933009F0A6
:1022100080E0809364032BC080916903811127C003
:1022200080916B038F7009F4D1C08093E9002091F5
:10223000EB0020FF1CC0933021F48091EB00806202
:1022400014C09091EB0090619093EB0021E030E09E
:10225000A90102C0440F551F8A95E2F74093EA0096
:102260001092EA008091EB0088608093EB0010925E
:10227000E9008091E800877F86C08111A7C0109196
:1022800069031F778091E3008078812B8093E300BE
:102290008091E800877F8093E8000E94060F80917C
:1022A000E80080FFFCCF8091E30080688093E3002A
:1022B000111102C082E001C083E08093660386C0F2
:1022C0008058823008F082C08091690390916A033F
:1022D0008C3D53E0950779F583E08A838AE2898310
:1022E0004FB7F894DE01139620E03EE051E2E32F71
:1022F000F0E050935700E49120FF03C0E295EF70A7
:102300003F5FEF708E2F90E0EA3010F0C79601C06B
:10231000C0968D939D932F5F243149F74FBF8091D5
:10232000E800877F8093E8006AE270E0CE010196C2
:102330000E94130E14C0AE014F5F5F4F60916B039C
:102340000E945A0DBC01892B09F440C09091E8000D
:10235000977F9093E80089819A810E94730E809103
:10236000E8008B778093E80031C0803879F5809160
:10237000E800877F8093E800809162038093F100FA
:102380008091E8008E778093E8000E94060F1EC0BF
:1023900081111CC0909169039230C0F48091E800D3
:1023A000877F8093E800909362030E94060F8091DC
:1023B0006203811106C08091E30087FD02C081E0C5
:1023C00001C084E0809366030E94B70B8091E8000F
:1023D00083FF0AC08091E800877F8093E8008091A6
:1023E000EB0080628093EB00AA960FB6F894DEBFF4
:1023F0000FBECDBFDF91CF911F91089590937402CE
:10240000809373020895E0917302F0917402309703
:1024100021F00190F081E02D099480E00895EF9281
:10242000FF920F931F93CF93DF93E0917302F0918C
:1024300074023097B1F18C010280F381E02D09958F
:102440008091510382FF2DC080FF04C085E494E099
:102450000E949705E80118E08FE3E82E84E0F82E4B
:102460008091510380FF0BC088811F928F93FF9250
:10247000EF920E9430060F900F900F900F90115026
:1024800021961111EDCF8091510380FF0AC08DE399
:1024900094E0DF91CF911F910F91FF90EF900C94FA
:1024A0009705DF91CF911F910F91FF90EF900895C5
:1024B000E0917302F0917402309721F00480F5816D
:1024C000E02D09940895CF93DF93EC018091710280
:1024D00090917202C817D90709F1D0937202C09384
:1024E0007102E0917302F09174023097B9F00680A6
:1024F000F781E02DCE0109958091510382FF0EC036
:1025000080FF0CC0DF93CF938FE294E09F938F9373
:102510000E9430060F900F900F900F90DF91CF9197
:102520000895CF93DF93EC0180916F029091700238
:10253000C817D90709F1D0937002C0936F02E091D8
:102540007302F09174023097B9F00084F185E02DA8
:10255000CE0109958091510382FF0EC080FF0CC00F
:10256000DF93CF938FE194E09F938F930E94300687
:102570000F900F900F900F90DF91CF9108950C94D2
:102580006F130E947D1F0E9459060C949009BF9200
:10259000CF92DF92EF92FF920F931F93CF93DF932F
:1025A00000D000D01F92CDB7DEB70E94210806E709
:1025B00012E0F12C8F2D0E942E09B82EF801C08058
:1025C000C82639F4F3940F5F1F4FF0E1FF12F2CFEA
:1025D00030C08091510381FD0E948B13D12CEE24D9
:1025E000E3948E2D8C21F9F0D982FA8281E09E2D20
:1025F0009B2109F480E08B830E94861F8160782FE5
:102600009D838C8349815A816B818D810E94C11386
:1026100049815A816B817C818D810E94001FF80164
:1026200090819E259083D394EE0CF8E0DF12D9CFF1
:10263000C9CF8FEF89838A831B820E94861F8160A6
:10264000782F9D838C8349815A816B818D810E9473
:10265000C1130E94FF1E0E9453220E94470710913F
:1026600075020E940312181741F10E940312809311
:1026700075029091510392FF0EC090FF0CC01F9203
:102680008F9380E594E09F938F930E9430060F9084
:102690000F900F900F90809175020F900F900F90F8
:1026A0000F900F90DF91CF911F910F91FF90EF90BE
:1026B000DF90CF90BF900C94111F0F900F900F9050
:1026C0000F900F90DF91CF911F910F91FF90EF909E
:1026D000DF90CF90BF9008950C9434090895089529
:1026E000CF93DF931F92CDB7DEB769830E942E0987
:1026F00090E021E030E0698102C0220F331F6A952B
:10270000E2F72823392381E0232B09F480E00F909E
:10271000DF91CF910895EF92FF920F931F93CF9384
:10272000DF9389E694E00E949705C0E0D0E080E264
:10273000E82E81E0F82E0BE514E08C2F0E942E0984
:102740000E94ED1EFF92EF921F928F93DF93CF9323
:102750001F930F930E94300621968DB79EB708965F
:102760000FB6F8949EBF0FBE8DBFC031D10529F7BB
:10277000DF91CF911F910F91FF90EF9008950895F1
:102780000895CF93DF93CDB7DEB72B970FB6F894AC
:10279000DEBF0FBECDBF942F4F83252F588769878B
:1027A0007A878B874A855B85452B21F02F3F09F57A
:1027B0009F3FF9F4DE01119686E0FD0111928A95A2
:1027C000E9F785E0FE01379601900D928A95E1F7D1
:1027D00049815A816B817C818D819E810E94661B1B
:1027E0002B960FB6F894DEBF0FBECDBFDF91CF9111
:1027F00008954F81588569857A858B850E94001FD1
:10280000D9CFCF93882309F4A9C0C82F8238A1F467
:102810000E94031281FDA2C089E30E94491E0E940A
:10282000C21E2FEF81EE94E0215080409040E1F7EE
:1028300000C0000089E315C08338C1F40E94031270
:1028400080FD8CC083E50E94491E0E94C21E2FEFAE
:1028500081EE94E0215080409040E1F700C00000FC
:1028600083E50E94661ECF910C94C21E8438A1F4A9
:102870000E94031282FD72C087E40E94491E0E94DA
:10288000C21E2FEF81EE94E0215080409040E1F78E
:1028900000C0000087E4E5CF8CEF8C0F813A20F078
:1028A00080E58C0F8E3248F48C2F0E947F25811199
:1028B00055C08C2F0E94491ED6CF80E28C0F8830E5
:1028C00048F4C77081E001C0880FCA95EAF70E94FA
:1028D000881EC9CF8BE58C0F833078F4C53A29F078
:1028E000C63A31F083E890E005C081E890E002C08C
:1028F00082E890E0CF910C94631288E58C0F8531CB
:1029000068F5C83A89F0C93A91F0CA3A99F0CB3AD9
:10291000A1F0CC3AA9F0CD3AB1F0CE3AB9F0CF3A25
:10292000C1F080E090E017C082EE90E014C089EE24
:1029300090E011C08AEE90E00EC085EB90E00BC0F5
:1029400086EB90E008C083EB90E005C084EB90E05C
:1029500002C087EB90E0CF910C949112CF91089533
:10296000882309F46AC08238A1F40E94031281FF0F
:1029700064C089E30E94491E0E94C21E2FEF81EEAF
:1029800094E0215080409040E1F700C0000089E3CE
:1029900015C08338B9F40E94031280FF4EC083E54E
:1029A0000E94491E0E94C21E2FEF81EE94E021502A
:1029B00080409040E1F700C0000083E50E94661E61
:1029C0000C94C21E8438A1F40E94031282FF35C009
:1029D00087E40E94491E0E94C21E2FEF81EE94E000
:1029E000215080409040E1F700C0000087E4E6CF2E
:1029F0009CEF980F913A10F390E5980F9E32F0F209
:102A000090E2980F983050F4877091E001C0990FD0
:102A10008A95EAF7892F0E948E1ED2CF9BE5980FE8
:102A2000933020F480E090E00C946312885A853152
:102A300020F480E090E00C9491120895882321F016
:102A40000E94881E0C94C21E0895882321F00E94C3
:102A50008E1E0C94C21E0895BF92CF92DF92EF9209
:102A6000FF920F931F93CF93DF9300D000D000D03D
:102A7000CDB7DEB725E0FC01DE01119601900D9285
:102A80002A95E1F7FC0140815181028163817481C3
:102A9000258122952F706115710509F403C35F3FED
:102AA00019F44F3F09F4FEC26C01862F7D836C83BD
:102AB000602F782F8D812E830E94C61D182FB92E6E
:102AC0000E94C51D0E94B51CEB2DE295EF70F0E051
:102AD000EC5BFF4F2E810C9430288B2D807F9B2D3B
:102AE0009F70F92E882319F0F29490EFF9220023B9
:102AF00049F0FF2009F483C28F2D0E949B1E0E9483
:102B0000C21E7DC2812F0E94B014FF2009F4CAC2E8
:102B10008F2D0E94A11E26960FB6F894DEBF0FBE21
:102B2000CDBFDF91CF911F910F91FF90EF90DF907C
:102B3000CF90BF900C94C21E8B2D807F9B2D9F70D9
:102B4000F92E803219F0F29480EFF822112319F057
:102B5000113009F12AC00023B1F08F2D222351F149
:102B6000213041F526960FB6F894DEBF0FBECDBFDB
:102B7000DF91CF911F910F91FF90EF90DF90CF9059
:102B8000BF900C94AB1E222319F0213009F48AC2A5
:102B90000E94AE1E2DC00023F1F0263008F082C244
:102BA0000E94851E8F2129F023C00023F9F02111F6
:102BB00016C08F2D26960FB6F894DEBF0FBECDBF80
:102BC000DF91CF911F910F91FF90EF90DF90CF9009
:102BD000BF900C941E15253008F064C209C0F601A0
:102BE000858180FF0CC28F708583E3CF21111CC2C9
:102BF0008F2D83C12B2D26952695237030E021152E
:102C0000310521F021303105D1F04CC2002321F0F3
:102C1000812F9B2D937002C080E090E026960FB626
:102C2000F894DEBF0FBECDBFDF91CF911F910F9102
:102C3000FF90EF90DF90CF90BF900C946312002331
:102C400021F0812F9B2D937002C080E090E02696AA
:102C50000FB6F894DEBF0FBECDBFDF91CF911F91AD
:102C60000F91FF90EF90DF90CF90BF900C94911256
:102C7000812F002319F00E94D92002C00E94412117
:102C800026960FB6F894DEBF0FBECDBFDF91CF9171
:102C90001F910F91FF90EF90DF90CF90BF900C9419
:102CA000C6218B2D837009F07BC00111FBC1812FE0
:102CB000829586958770880F880F912F9F70C92EF7
:102CC000D12CE12CF12C082E04C0CC0CDD1CEE1C08
:102CD000FF1C0A94D2F714FF12C04FE050E060E0EE
:102CE00070E004C0440F551F661F771F8A95D2F706
:102CF000CB01BA01609570958095909503C060E016
:102D000070E0CB012B2D269526952370422F50E0A5
:102D100042305105D9F04330510569F16C297D29C4
:102D20008E299F294130510551F126960FB6F8940E
:102D3000DEBF0FBECDBFDF91CF911F910F91FF90EE
:102D4000EF90DF90CF90BF900C94DA1C6C297D2916
:102D50008E299F2926960FB6F894DEBF0FBECDBFF1
:102D6000DF91CF911F910F91FF90EF90DF90CF9067
:102D7000BF900C94F41C0E94DA1CC701B601269681
:102D80000FB6F894DEBF0FBECDBFDF91CF911F917C
:102D90000F91FF90EF90DF90CF90BF900C94C01CEC
:102DA000002319F08B2D817001C08695882309F4CA
:102DB00079C1812F829586958770880F880F912F12
:102DC0009F70C92ED12CE12CF12C082E04C0CC0C04
:102DD000DD1CEE1CFF1C0A94D2F714FF12C04FE05A
:102DE00050E060E070E004C0440F551F661F771F7D
:102DF0008A95D2F7CB01BA01609570958095909530
:102E000003C060E070E0CB012B2D26952695237042
:102E1000422F50E042305105D9F04330510569F15D
:102E20006C297D298E299F294130510551F1269623
:102E30000FB6F894DEBF0FBECDBFDF91CF911F91CB
:102E40000F91FF90EF90DF90CF90BF900C94A11D59
:102E50006C297D298E299F2926960FB6F894DEBF0E
:102E60000FBECDBFDF91CF911F910F91FF90EF90DB
:102E7000DF90CF90BF900C94B31D0E94A11DC7019D
:102E8000B60126960FB6F894DEBF0FBECDBFDF9118
:102E9000CF911F910F91FF90EF90DF90CF90BF9057
:102EA0000C948F1D103FD1F128F480E4810F803203
:102EB00050F0A0C0123F09F462C008F44BC0133FA9
:102EC00009F472C097C0F12FF071FF2E8B2D8F7116
:102ED000002351F00E94281D812FFF2019F08295B8
:102EE000807F68CE8F7066CE0E94491D812FFF20A3
:102EF00019F08295807F01C08F7026960FB6F894E6
:102F0000DEBF0FBECDBFDF91CF911F910F91FF901C
:102F1000EF90DF90CF90BF900C9425150023B1F077
:102F2000253008F0BFC08B2D8F7126960FB6F89410
:102F3000DEBF0FBECDBFDF91CF911F910F91FF90EC
:102F4000EF90DF90CF90BF900C946E1D263008F06C
:102F5000A9C0E9CF0023A9F08B2D8F7126960FB65B
:102F6000F894DEBF0FBECDBFDF91CF911F910F91BF
:102F7000FF90EF90DF90CF90BF900C94281D00231E
:102F800059F38B2D8F7126960FB6F894DEBF0FBEC6
:102F9000CDBFDF91CF911F910F91FF90EF90DF9008
:102FA000CF90BF900C94491D002399F08B2D8F7109
:102FB00026960FB6F894DEBF0FBECDBFDF91CF913E
:102FC0001F910F91FF90EF90DF90CF90BF900C94E6
:102FD000131D26960FB6F894DEBF0FBECDBFDF914E
:102FE000CF911F910F91FF90EF90DF90CF90BF9006
:102FF0000C940E1D0023A9F0222309F4ADCF812FDC
:1030000026960FB6F894DEBF0FBECDBFDF91CF91ED
:103010001F910F91FF90EF90DF90CF90BF900C9495
:103020000114222309F4ADCF812F26960FB6F89410
:10303000DEBF0FBECDBFDF91CF911F910F91FF90EB
:10304000EF90DF90CF90BF900C94B0144B2D4F7049
:10305000612FC6010E944F2026960FB6F894DEBF5E
:103060000FBECDBFDF91CF911F910F91FF90EF90D9
:10307000DF90CF90BF900C940E1C4B2D4F70612FA2
:10308000C60126960FB6F894DEBF0FBECDBFDF9106
:10309000CF911F910F91FF90EF90DF90CF90BF9055
:1030A0000C94522026960FB6F894DEBF0FBECDBF0B
:1030B000DF91CF911F910F91FF90EF90DF90CF9014
:1030C000BF9008950E94A81E0E94771E0E94C21EF3
:1030D0000E94FA220E94C62180E090E00E946312C2
:1030E00080E090E00C9491120E94981E0C9462185B
:1030F000CF93DF9300D000D01F92CDB7DEB7942FCF
:103100004983252F5A836B837C838D834C815D811A
:10311000452B39F12F3F11F49F3F19F149815A8115
:103120006B817C818D810E94C61D292F22952F7075
:1031300030E02C30310504F52A3031055CF42250A2
:1031400031092230310568F4853A80F4843090F4F6
:10315000823080F0883E38F4803E60F48450813ABA
:1031600048F080E014C0803FE1F704C090E2980F7F
:10317000983080F781E00BC02C30310521F493FBAF
:10318000882780F904C02F303105C9F3EACF0F90AA
:103190000F900F900F900F90DF91CF910895CF93E4
:1031A000DF9300D000D01F92CDB7DEB70F900F9005
:1031B0000F900F900F90DF91CF910895CF93DF93F1
:1031C00000D000D000D0CDB7DEB726960FB6F89469
:1031D000DEBF0FBECDBFDF91CF910895CF93DF93B8
:1031E000C091860280918702C817A1F0D0E0CE017D
:1031F00066E070E00E940B28FC01E857FD4F40811B
:10320000518162817381848195810E94DE182196AB
:10321000C770E8CFDF91CF9108954091B8025091E7
:10322000B9026091BA027091BB028091BC02909188
:10323000BD020C94DE18CF93DF938091BD0282957E
:103240008F7009F05CC08091BA02882309F457C0DE
:1032500020918602D09187024091B802C091B902B4
:10326000E091BB02F091BC022D1709F448C030E098
:10327000309709F440C0CF3F11F44F3FE1F1C9014D
:1032800066E070E00E940B28DC01A857BD4F119644
:103290008C911197C8132FC08C9148132CC0129693
:1032A0008C911297811127C013968D919C91149740
:1032B0008E179F0708F401978E1B9F0B883C910582
:1032C000D0F48091BD028F7080618093BD02C901EE
:1032D00066E070E00E940B28FC01E357FD4F9081EF
:1032E0009F709061908388EB92E00E942C15DF9193
:1032F000CF910C94EE182F5F3F4F2770B5CFDF9121
:10330000CF910895BF92CF92DF92EF92FF920F93E9
:103310001F93CF93DF93CDB7DEB761970FB6F894C5
:10332000DEBF0FBECDBF7C0185E0F701DE011D963B
:1033300001900D928A95E1F7D7014C9111962C914D
:1033400011971296DC90129713960D911C91149779
:103350005091B8026091B9028091BB029091BC0279
:10336000009709F481C16F3F19F45F3F09F47CC1F4
:10337000B090BA02BB2009F4CCC03091BD0208174E
:10338000190728F0F801E81BF90BCF0104C080955C
:103390009095800F911FCC24C394883C910588F0B0
:1033A000C12C307F09F0D4C0702F198B088B522F9D
:1033B0006D2D89890E94CF1888EB92E00E942C1510
:1033C000BDC0832F807F09F04AC0621314C054131C
:1033D00012C0D11010C03F7030613093BD020E9406
:1033E0000D1988EB92E00E942C158091BD02D70147
:1033F00015968C9332C00115110531F12F3F11F450
:103400004F3F11F1CD2CD1101FC0E09186023091B9
:103410008702E31709F462C0F0E0CF0166E070E0D4
:103420000E940B28DC01A857BD4F11968C91119773
:10343000281307C08C91481304C012968C918111F7
:1034400003C03196E770E5CFCD2CDD2009F42DC106
:103450008091BD0281608093BD02C12C26C16213A0
:1034600008C0541306C0D11004C08091BD02D7011A
:10347000CEC04D872E87DF86702F198B088B522F79
:103480006D2D89890E947818882309F43EC0DD20BB
:10349000E1F12091BD02822F82958F7090E002971A
:1034A00074F08091B8029091B90298878F83198641
:1034B0001B870A872C87CE0107960E942C1586E071
:1034C000F701A8EBB2E001900D928A95E1F70E9416
:1034D0001B190E940D19CC24C394E7C0702F198BBF
:1034E000088B522F60E089890E94C61D292F2295E2
:1034F0002F7030E0223031050CF0CBC09F7009F006
:10350000C5C0805E883008F4D0C0C7010E942C1569
:10351000E2CF0817190708F458C0F801E81BF90BA7
:10352000CF01883C910508F455C0C12C702F198B30
:10353000088B522F6D2D89890E94CF18E8EBF2E09D
:1035400086E0DF011D928A95E9F70E940D19ADC052
:10355000621314C0541312C0D11010C08091BD0268
:10356000F7018583C7010E942C1586E0E8EBF2E0A5
:10357000DF011D928A95E9F7CB2C97C04D872E87E6
:10358000DF86702F198B088B522F6D2D89890E9431
:103590007818882309F4B9CFDD2009F4B6CF20913B
:1035A000BD02822F82958F7090E002970CF487CF36
:1035B0008091B8029091B9029A8389831B821D83FE
:1035C0000C832E83CE01019678CF80959095800F45
:1035D000911FA7CFCD2CDD2009F497CF62132EC009
:1035E00054132CC02091BD0220FD1FC0822F829554
:1035F0008F70D9F0D70115962C9315978F3049F01D
:103600008F5F982F9295907F822F8F70892B1596C0
:103610008C93C7010E942C1586E0F701A8EBB2E05D
:1036200001900D928A95E1F790CF86E0F701A8EB23
:10363000B2E001900D928A95E1F737C04D872E8751
:10364000DF86702F198B088B522F6D2D89890E9470
:103650007818811134CF8091BD0281608093BD02C2
:10366000C7010E942C1521C0DD2009F44ECF4D87E3
:103670002E87DF86702F198B088B522F6D2D89892D
:103680000E947818882309F440CF19CF811139CFCF
:103690000CC0243031050CF038CF9F7009F431CFC5
:1036A000F7019581907F09F02CCF8C2D61960FB694
:1036B000F894DEBF0FBECDBFDF91CF911F910F9168
:1036C000FF90EF90DF90CF90BF900895CF93DF935E
:1036D000CDB7DEB72C970FB6F894DEBF0FBECDBFC7
:1036E0004F83588769877A878B879C87CE01079697
:1036F0000E948219882371F08F8198852A853B85E5
:10370000232B09F43FC09F3F09F068C08F3F09F0A9
:1037100065C038C086E0FE013796DE011196019043
:103720000D928A95E1F76F817885EA85FB85309760
:1037300049F17F3F11F46F3F29F18091870290E0BA
:103740009C012F5F3F4F277033274091860250E046
:103750002417350709F44BC069837A83FD83EC8312
:1037600066E070E00E940B28DC01A857BD4F96E090
:10377000FE01319601900D929A95E1F72093870210
:103780000E94EE1880918602909187028917E9F1D4
:1037900090E066E070E00E940B2888579D4F0E94E1
:1037A0008219882391F18091860290E066E070E0B2
:1037B0000E940B28FC01E857FD4F40815181628136
:1037C0007381848195810E94DE188091860290E049
:1037D00001968770992780938602D4CF4F815885B0
:1037E00069857A858B859C850E94DE18CBCF0E94E7
:1037F00074181092870210928602E8EBF2E086E0DD
:10380000DF011D928A95E9F7BDCF2C960FB6F8948B
:10381000DEBF0FBECDBFDF91CF910895DF92EF9253
:10382000FF920F931F93CF93DF93FC01892B09F431
:103830008AC0E12CF12CDD24D394EF0121968491F0
:10384000853709F461C058F4843708F04EC08430DD
:1038500008F06AC08130D1F0823071F174C08837CD
:1038600009F45DC050F4863709F455C0873709F074
:103870006AC08E2D0E94951E54C09CE7980F903709
:1038800008F061C08F770E94B01450C08F010E5FA6
:103890001F4FFE01849190E2980F983050F487708A
:1038A000FD2D01C0FF0F8A95EAF78F2F0E949B1E06
:1038B00014C00E94011413C08F010E5F1F4FFE0140
:1038C000C49180E28C0F883060F4C7708D2D01C0E8
:1038D000880FCA95EAF70E94A11E0E94C21EE80145
:1038E00025C08C2F0E94B014FACF9F012E5F3F4F4E
:1038F000FE01C491CC2369F08FE99FE00197F1F7B5
:1039000000C00000C150F6CF9F012E5F3F4FFE0167
:10391000F490E9010BC00E94851EE82E07C00E94AA
:10392000981E0E94C21E02C00E9401148F2D88237F
:1039300041F0EFE9FFE03197F1F700C0000081505E
:10394000F6CFFE017ACFDF91CF911F910F91FF90BB
:10395000EF90DF90089560933E0370933F03809350
:103960004003909341030C94101F08956093420309
:103970007093430380934403909345030C940F1F6B
:103980000F931F930091420310914303209144032E
:1039900030914503602B712B822B932B6093420354
:1039A0007093430380934403909345031F910F91B9
:1039B0000C940F1F0F931F93009142031091430328
:1039C0002091440330914503602371238223932384
:1039D00060934203709343038093440390934503A1
:1039E0001F910F910C940F1F0F931F93009142038F
:1039F00010914303209144033091450360277127C0
:103A00008227932760934203709343038093440378
:103A1000909345031F910F910C940F1F60E070E08D
:103A2000CB010C94AB1C0F931F9341E050E060E07E
:103A300070E08A019B0104C0000F111F221F331F79
:103A40008A95D2F7C901B8011F910F910C94AB1C54
:103A50000F931F9341E050E060E070E004C0440F1A
:103A6000551F661F771F8A95D2F780913E0390916C
:103A70003F03A0914003B09141038A019B01082BB1
:103A8000192B2A2B3B2BC901B8011F910F910C94C4
:103A9000AB1C0F931F9341E050E060E070E004C066
:103AA000440F551F661F771F8A95D2F74095509592
:103AB0006095709580913E0390913F03A0914003E3
:103AC000B09141038A019B01082319232A233B2338
:103AD000C901B8011F910F910C94AB1C0F931F9358
:103AE00041E050E060E070E004C0440F551F661FE5
:103AF000771F8A95D2F780913E0390913F03A09162
:103B00004003B09141038A019B01082719272A2706
:103B10003B27C901B8011F910F910C94AB1C0F9367
:103B20001F9300913E0310913F0320914003309179
:103B30004103602B712B822B932B1F910F910C94BF
:103B4000AB1C0F931F9300913E0310913F032091F4
:103B500040033091410360237123822393231F91FB
:103B60000F910C94AB1C0F931F9300913E03109187
:103B70003F03209140033091410360277127822742
:103B800093271F910F910C94AB1C08958F929F92D5
:103B9000AF92BF92DF92EF92FF920F931F93CF935A
:103BA000DF9300D000D01F92CDB7DEB76B837C834C
:103BB0008D838A018C819D81892B21F01F3F29F4FF
:103BC0004F3F19F480E090E053C08B81882309F4C3
:103BD0003CC08090420390904303A0904403B09077
:103BE000450380913E0390913F03A0914003B09123
:103BF0004103882A992AAA2ABB2A2FE1E22EF12C16
:103C0000D501C4010E2C04C0B695A795979587954C
:103C10000A94D2F780FF07C0DE2CB8018E2D0E94D7
:103C20002020019729F481E0E81AF10848F7D12C07
:103C3000E12FF0E093E0EE0FFF1F9A95E1F7E00F20
:103C4000F11DE254FD4FD0820CC0E12FF0E083E083
:103C5000EE0FFF1F8A95E1F7E00FF11DE254FD4FD3
:103C6000D08009831A8369817A818D2D0E9420205A
:103C70000F900F900F900F900F90DF91CF911F91A9
:103C80000F91FF90EF90DF90BF90AF909F908F903B
:103C900008952091120130911301F90132969FEF9E
:103CA00040E05191581789F09F3F19F4511101C01C
:103CB000942F4F5F4630A9F79F3F39F0F901E90F84
:103CC000F11D97FDFA9582830895089520911201C0
:103CD00030911301F9013296285F3F4F908198137C
:103CE00001C010823196E217F307C1F7089581E011
:103CF00090E0E0911201F0911301E80FF91F10829A
:103D0000019688309105A9F7089580915003089590
:103D100090915003892B8093500308958095909142
:103D2000500389238093500308958093500308958E
:103D300010925003089590914F03892B80934F0365
:103D40000895809590914F03892380934F030895A0
:103D500010924F03089580934603089510924603EE
:103D600008958091120190911301FC0131969C01FC
:103D7000285F3F4F80E0919191118F5FE217F30729
:103D8000D1F70895E0911201F09113018091500351
:103D90008083E0911201F0911301908180914F0393
:103DA000892B808380914603882361F0E091120182
:103DB000F09113019081892B80830E94B11E8111A3
:103DC0001092460380911201909113010C940F12EE
:103DD000909341018093400108958295982F9C7C97
:103DE000292F26952695982F9373990F990F922B2B
:103DF000892F8A7A86959575990F892B089508954C
:103E0000CF93DF9300D000D01F92CDB7DEB70F90D5
:103E10000F900F900F900F90DF91CF91089508951C
:103E200008950C946C1380916603843021F11092F4
:103E3000520320E488E190E00FB6F894A8958093AF
:103E400060000FBE2093600083B7817F846083BFD2
:103E500083B7816083BF7894889583B78E7F83BF53
:103E60000FB6F894A89580916000886180936000F7
:103E7000109260000FBE0895CF930E94BF130E945E
:103E800021080E94C013C0E08C2F0E942E098111CE
:103E900004C0CF5FC031C1F701C081E0CF91089568
:103EA0000E946E130C9474181F920F920FB60F920B
:103EB00011248F939F93AF93BF93809152038111ED
:103EC00013C08091530390915403A0915503B09176
:103ED00056034196A11DB11D809353039093540343
:103EE000A0935503B0935603BF91AF919F918F91CB
:103EF0000F900FBE0F901F90189582E084BD93E045
:103F000095BD9AEF97BD80936E0008952FB7F894F2
:103F10008091530390915403A0915503B09156039F
:103F20002FBF08952FB7F8946091530370915403F5
:103F300080915503909156032FBF0895CF92DF9241
:103F4000EF92FF920F931F932FB7F8944091530372
:103F50005091540360915503709156032FBF6A012D
:103F60007B01EE24FF248C0120E030E0C016D10656
:103F7000E206F30610F4415051099A01281B390B4F
:103F8000C9011F910F91FF90EF90DF90CF9008959E
:103F90001F920F920FB60F9211248F939F93AF939E
:103FA000BF938091530390915403A0915503B09116
:103FB00056030196A11DB11D8093530390935403A2
:103FC000A0935503B0935603BF91AF919F918F91EA
:103FD0000F900FBE0F901F9018950E94570FF894E6
:103FE0002FEF87EA91E6215080409040E1F700C032
:103FF000000087E090EBDC0180936F0390937003E7
:10400000A0937103B09372039CE088E10FB6F8941B
:10401000A895809360000FBE90936000FFCFE92FBA
:10402000F0E093E0EE0FFF1F9A95E1F7E80FF11D26
:10403000E855FF4F9491892F8F7092959F70089546
:10404000CF93C82FCB010E940F20492F90E0242F3F
:1040500030E054E0220F331F5A95E1F7282B392B1B
:104060002038310519F480E090E017C0EC2FF0E023
:1040700023E0EE0FFF1F2A95E1F74770E40FF11DD3
:1040800034E0EE0FFF1F3A95E1F7E80FF91FEE0F4E
:10409000FF1FE050F84985919491CF91089580E0F9
:1040A00090E0089508958091590380FF0CC080919D
:1040B000170190E065E070E00E940B2895958795C8
:1040C000959587952EC081FF0AC08091170190E0D9
:1040D00065E070E00E940B289595879522C082FFCD
:1040E00008C08091170190E065E070E00E940B2805
:1040F00018C020915A032223D1F0309116012317C2
:1041000080F78091170190E065E070E00E940B2835
:10411000622F70E00E940B28632F70E00E941C2821
:10412000CB018038910530F4009731F0089585E097
:1041300090E008958FE7089581E0089580915903F4
:1041400080FF08C06091150170E0759567957595C1
:10415000679523C081FF06C06091150170E07595D9
:1041600067951BC082FF04C06091150170E012C00A
:1041700060915A036623D1F0209114016217A0F7D1
:104180008091150170E090E00E940B28622F70E092
:104190000E941C286038710528F46115710521F012
:1041A000862F08958FE7089581E0089561E070E01B
:1041B000F4CF803F21F40E945320819504C0813FB9
:1041C00029F40E94532080935D030895823F21F4D7
:1041D0000E945320819504C0833F29F40E945320FC
:1041E00080935C030895893F19F40E949E2005C0C6
:1041F0008A3F31F40E949E20819580935E0308954A
:104200008B3F21F40E949E20819504C08C3F29F4AD
:104210000E949E2080935F030895843F21F4809143
:104220005B03816017C0853F21F480915B0382604E
:1042300011C0863F21F480915B0384600BC0873FEF
:1042400021F480915B03886005C0883F31F4809140
:104250005B03806180935B0308958D3F21F480911F
:10426000590381600BC08E3F21F480915903826015
:1042700005C08F3F29F480915903846080935903CE
:104280000895803F39F480915D0387FF6CC01092E0
:104290005D0369C0813F29F480915D031816BCF36A
:1042A00062C090915C03823F29F497FF5CC010923A
:1042B0005C0359C0833F19F41916CCF354C0893FED
:1042C00041F480915E0318160CF04DC010925E030D
:1042D0004AC08A3F29F480915E0387FF44C0F6CF2D
:1042E0008B3F39F480915F0387FF3DC010925F03DD
:1042F0003AC08C3F29F480915F031816BCF333C099
:10430000843F21F480915B038E7F17C0853F21F4A9
:1043100080915B038D7F11C0863F21F480915B0308
:104320008B7F0BC0873F21F480915B03877F05C0A3
:10433000883F31F480915B038F7E80935B0313C0D1
:104340008D3F21F4809159038E7F0BC08E3F21F465
:10435000809159038D7F05C08F3F29F480915903C7
:104360008B7F8093590380915C0381110EC08091F3
:104370005D0381110AC080915E03811106C08091A6
:104380005F03811102C010925A0308958091510376
:1043900083FF7EC08EE994E00E94970580915B03C5
:1043A0001F928F9389E994E09F938F930E94300628
:1043B00087E994E00E94970580915C03282F082EDE
:1043C000000C330B3F938F9384E994E09F938F937A
:1043D0000E94300682E994E00E94970580915D0377
:1043E000282F082E000C330B3F938F938FE894E017
:1043F0009F938F930E9430068DE894E00E9497056A
:1044000080915E03282F082E000C330B3F938F936F
:104410008AE894E09F938F930E94300688E894E0A6
:104420000E94970580915F03282F082E000C330B04
:104430003F938F9385E894E09F938F930E9430067B
:1044400082E894E00E94970580915A031F928F930F
:104450008FE794E09F938F930E9430068DE794E05E
:104460000E949705809159031F928F938AE794E0E9
:104470009F938F930E94300687E794E00E949705F0
:104480008DB79EB74C960FB6F8949EBF0FBE8DBFEA
:104490008BE593E00E9458120E94861F9093580368
:1044A0008093570308951F93CF93DF938091570311
:1044B000909158030E949E1FFC0120915A032223D1
:1044C00029F090911801892F90E007C0809119017F
:1044D00090E06AE070E00E940B28E817F90708F402
:1044E00085C080915C03C0915D03D0915E03109103
:1044F0005F03811107C0C11175C0D11173C01111C3
:1045000071C074C02F3F19F02F5F20935A03181603
:1045100024F40E94532080935C0380915C0387FF06
:1045200005C00E945320819580935C031C1624F4DF
:104530000E94532080935D0380915D0387FF05C037
:104540000E945320819580935D0360915C036623F4
:1045500031F1C0915D03CC2311F1062E000C770BD5
:10456000880B990B0E940A2723E333E343E35FE3BD
:104570000E946E270E94D22660935C036C2FCC0FA2
:10458000770B880B990B0E940A2723E333E343E35D
:104590005FE30E946E270E94D22660935D031D1682
:1045A00024F40E949E2080935E0380915E0387FF27
:1045B00005C00E949E20819580935E03111624F40D
:1045C0000E949E2080935F0380915F0387FF05C058
:1045D0000E949E20819580935F03DF91CF911F9170
:1045E0000C94C6212F3F09F08FCF97CFDF91CF9149
:1045F0001F910895EBE5F3E085E0DF011D928A95B8
:10460000E9F710925A0310925903089581EC96E04D
:104610000E9497051F9281E08F931F9285E08F93F0
:1046200083E796E09F938F930E9430060F900F9040
:104630000F900F900F900F9008958330E9F128F4B8
:10464000813061F0823009F10895853009F462C04B
:1046500008F449C0863009F474C0089580911901A6
:10466000262F30E0280F311D2F3F310524F4680F2D
:104670006093190103C08FEF809319018091190194
:104680001F928F938CEA95E072C080911801262FBB
:1046900030E0280F311D2F3F310524F4680F60935F
:1046A000180103C08FEF80931801809118011F92A9
:1046B0008F938AE995E05BC080911701262F30E047
:1046C000280F311D2F3F310524F4680F6093170127
:1046D00003C08FEF80931701809117011F928F9372
:1046E00087E895E044C080911601262F30E0280F1E
:1046F000311D2F3F310524F4680F6093160103C06C
:104700008FEF80931601809116011F928F9382E79D
:1047100095E02DC080911501262F30E0280F311D26
:104720002F3F310524F4680F6093150103C08FEF0C
:1047300080931501809115011F928F9389E595E073
:1047400016C080911401262F30E0280F311D2F3F15
:10475000310524F4680F6093140103C08FEF809338
:104760001401809114011F928F938EE395E09F9323
:104770008F930E9430060F900F900F900F90089526
:10478000833081F128F4813059F08230D1F00895DE
:10479000853009F449C0B8F1863009F456C008954F
:1047A00080911901681720F4861B8093190102C0BB
:1047B00010921901809119011F928F938FE295E059
:1047C00054C080911801681720F4861B809318014B
:1047D00002C010921801809118011F928F938DE1F1
:1047E00095E043C080911701681720F4861B8093E1
:1047F000170102C010921701809117011F928F9329
:104800008AE095E032C080911601681720F4861B7B
:104810008093160102C010921601809116011F921A
:104820008F9385EF94E021C080911501681720F4E3
:10483000861B8093150102C010921501809115010D
:104840001F928F938CED94E010C080911401681733
:1048500020F4861B8093140102C0109214018091F1
:1048600014011F928F9381EC94E09F938F930E9489
:1048700030060F900F900F900F900895CF93C82F90
:104880001F928F9386EC97E09F938F930E94300640
:1048900081E090E0A0E0B0E0BC01CD0104C0660F73
:1048A000771F881F991FCA95D2F70E94B61C0F90D8
:1048B0000F900F900F90CF910C947418CF93873274
:1048C00088F58E3108F00BC18E3009F487C0D8F41A
:1048D000873009F460C08B3009F44FC0863009F08E
:1048E00002C180915103817F8E7F809351038BECB5
:1048F00097E00E9497058FE79AE00E94970581E074
:104900008093610346C0863109F4B0C020F4803141
:1049100009F47AC0E8C0893109F491C08B3109F4F7
:1049200049C0E1C0883349F150F4893209F4D5C057
:10493000853309F4D2C0873209F0D5C0CEC08334A4
:1049400009F4CBC028F48A3308F4CDC08953C8C019
:10495000883409F0C8C00E9474188EE69AE00E945C
:1049600097052FEF83ED90E3215080409040E1F7D1
:1049700000C000000E94ED1F0CC082EF97E041C014
:1049800085E59AE00E9497058091510381608093AC
:104990005103C1E0ADC080915103C82FC17080FFA9
:1049A000EFCF81E69AE00E94970580915103817FC5
:1049B0008E7F3FC09091510391FBCC27C0F981E0DD
:1049C000C827892FC0FB81F980935103CC2319F0AC
:1049D00088E49AE029C08AE39AE013C090915103D9
:1049E00092FBCC27C0F981E0C827892FC0FB82F950
:1049F00080935103CC2319F08BE29AE015C08BE130
:104A00009AE00E949705C5CF9091510393FBCC2764
:104A1000C0F981E0C827892FC0FB83F98093510337
:104A2000CC2351F08FE09AE00E94970580915103CA
:104A30008160809351035CC082E09AE0E2CF83EF13
:104A400099E00E94970580ED99E00E9497058BE818
:104A500099E00E94970584E699E00E9497058FE10E
:104A600099E00E94970580EF98E0CBCF82EE98E026
:104A70000E9497050E9403121F928F9388EC98E082
:104A80009F938F930E943006809111011F928F9304
:104A900081EB98E09F938F930E94300680916E0285
:104AA0001F928F938EE998E09F938F930E94300618
:104AB0000E94921F9F938F937F936F9387E898E054
:104AC0009F938F930E9430068DB79EB742960FB684
:104AD000F8949EBF0FBE8DBF5CCF80E001C08D51AA
:104AE0000E943E2456CF85E898E00E949705C0E0DA
:104AF0008C2FCF91089580E0089580E00895CF93A2
:104B0000C82F80916103813069F020F0823009F470
:104B100049C040C167E08FE00E947013882309F408
:104B20003FC106C067E08FE00E947013882361F0E8
:104B30008C2F0E947B25811104C08C2F0E945E2443
:104B40002FC081E090E02CC08C2F0E947D25811128
:104B500026C0C431E1F070F4CB3081F0C031D1F423
:104B60000E9406238EEB97E00E94970582E08093D7
:104B7000610315C0C93259F0C83361F48BEC97E07A
:104B80000E94970582EC97E00E94970508C010925A
:104B9000610304C18CEB97E00E949705FFC081E0A0
:104BA0008170FEC0C43228F5CE3108F0C1C0CB30D0
:104BB000A1F1D0F4C73009F0D3C08EE18093190180
:104BC00082E3809318018AE08093170184E1809347
:104BD000160188E08093150188E28093140182E633
:104BE00096E00E949705BFC0C33149F1C431C1F0BE
:104BF000B7C0CB3409F4A9C028F4C93289F0C8334E
:104C000061F0AEC0C13509F49EC0C23509F499C047
:104C1000CE3409F0A5C06AE09EC00E940623A3C05E
:104C200080916003882319F0109260039CC08FE686
:104C300096E00E94970581E080936103B1C089E40A
:104C400096E00E94970587E396E00E949705809181
:104C500019011F928F9384E396E09F938F930E9494
:104C6000300682E396E00E94970580E296E00E947B
:104C70009705809118011F928F938DE196E09F9385
:104C80008F930E9430068BE196E00E9497058CE09E
:104C900096E00E949705809117011F928F9389E0FB
:104CA00096E09F938F930E94300687E096E00E94E3
:104CB000970586EF95E00E949705809116011F9257
:104CC0008F9383EF95E09F938F930E94300681EF3F
:104CD00095E00E9497058CED95E00E9497058091E4
:104CE00015011F928F9389ED95E09F938F930E94FA
:104CF000300687ED95E00E94970580EC95E00E94D4
:104D00009705809114011F928F938DEB95E09F93EF
:104D10008F930E9430068BEB95E00E9497058DB72C
:104D20009EB748960FB6F8949EBF0FBE8DBF1BC0AE
:104D3000CE51EC2FF0E0EB5CFE4F8081809360035E
:104D400012C061E003C061E006C06AE080916003C8
:104D50000E941D2308C0809160030E94C02303C0ED
:104D600080E696E013C080916003882369F01F926B
:104D70008F938AE596E09F938F930E9430060F9061
:104D80000F900F900F9004C087E596E00E94970562
:104D900081E006C01092610380E002C080E000CF95
:104DA000CF9108950E94D9266894B1110C94682778
:104DB00008950E944D2788F09F5798F0B92F9927A2
:104DC000B751B0F0E1F0660F771F881F991F1AF0F6
:104DD000BA95C9F714C0B13091F00E946727B1E0CD
:104DE00008950C946727672F782F8827B85F39F0CC
:104DF000B93FCCF3869577956795B395D9F73EF48F
:104E000090958095709561957F4F8F4F9F4F089536
:104E1000E89409C097FB3EF4909580957095619554
:104E20007F4F8F4F9F4F9923A9F0F92F96E9BB270A
:104E30009395F695879577956795B795F111F8CF86
:104E4000FAF4BB0F11F460FF1BC06F5F7F4F8F4FF1
:104E50009F4F16C0882311F096E911C0772321F0E7
:104E60009EE8872F762F05C0662371F096E8862F7F
:104E700070E060E02AF09A95660F771F881FDAF7D6
:104E8000880F9695879597F9089557FD9058440F88
:104E9000551F59F05F3F71F04795880F97FB991F99
:104EA00061F09F3F79F08795089512161306140656
:104EB000551FF2CF4695F1DF08C0161617061806E3
:104EC000991FF1CF86957105610508940895E894BE
:104ED000BB2766277727CB0197F908950E94802783
:104EE0000C94FA270E94EC2738F00E94F32720F058
:104EF000952311F00C94E3270C94E9270C94682770
:104F00000E94452778F39923C9F35523B9F3950FE8
:104F100050E0551FAA27EE27FF27BB27002408943F
:104F2000679520F4E20FF31FB41F0A1E220F331FF0
:104F3000441FAA1F6695A9F7779530F4F30FB41FA5
:104F40000A1E121E08F46395330F441FAA1F221F66
:104F5000769599F7879520F4B40F0A1E121E631FE9
:104F6000440FAA1F221F331F8695A9F7862F712D84
:104F7000602D11249F5750409AF0F1F088234AF099
:104F8000EE0FFF1FBB1F661F771F881F91505040F9
:104F9000A9F79E3F510580F00C94E3270C946827F5
:104FA0005F3FE4F3983ED4F3869577956795B79580
:104FB000F795E7959F5FC1F7FE2B880F911D96959A
:104FC000879597F9089597F99F6780E870E060E00A
:104FD00008959FEF80EC089500240A941616170692
:104FE00018060906089500240A94121613061406DA
:104FF00005060895092E0394000C11F4882352F03D
:10500000BB0F40F4BF2B11F460FF04C06F5F7F4FF4
:105010008F4F9F4F08950024552704C0080E591F35
:10502000880F991F009729F076956795B8F3710559
:10503000B9F7802D952F089597FB072E16F400944D
:1050400007D077FD09D00E94362807FC05D03EF432
:10505000909581959F4F0895709561957F4F089524
:10506000EE0FFF1F0590F491E02D0994AA1BBB1BC6
:1050700051E107C0AA1FBB1FA617B70710F0A61B58
:10508000B70B881F991F5A95A9F780959095BC0179
:08509000CD010895F894FFCF53
:10509800FFFF65010000FF620AF00ACD0A990A6560
:1050A8000A0147032808140A321E796573006E6FD7
:1050B80000404D3622DF0392035C033A03C602DF49
:1050C80002F802110301020304050607080900009B
:106800000000EA44E944E2440400050006000700F1
:10681000080009000A000B000C000D000E000F001C
:1068200010001100120013001400150016001700CC
:10683000180019001A001B001C001D001E001F007C
:10684000200021002200230024002500260027002C
:10685000280029002A002B002C002D002E002F00DC
:10686000300031A132003300340035A1360037004A
:10687000380082003A003B003C003D003E003F00F3
:1068800040004100420043004400450046004700EC
:10689000480049004A004B004C004D004E004F009C
:1068A000500051005200530067005400550056003C
:1068B000580059005A005B005C005D005E005F00FC
:1068C0006000610062006300640000005700000087
:1068D000CD440000000000000000000000000000A7
:1068E0000000000000006620000000000000000022
:1068F000E000E100E200E300E400E500E600E7007C
:106900000100010001000100EA4401000100E2442D
:106910000100010001000100460001004A004B0097
:10692000010001004700480001000100E9440100A6
:106930000100010001000100010001003A003B00DC
:106940003C003D003E003F0040004100420043004B
:10695000010001004C00010001004400450052000C
:1069600049000100010050004F0001004D004E00A1
:1069700051000100010001000100010001000100BF
:1069800001000100010001000100010001000100FF
:1069900001000100010001000100010001004D00A3
:1069A0004A004E004B0001000100010001000100FF
:1069B00001000100010001000100010001000100CF
:1069C00001000100010001000100010001000100BF
:1069D00001000100010001000100010001000100AF
:1069E000010001000100010001000100010001009F
:1069F000010001000100010001000100010001008F
:00000001FF
